{
  "_format": "hh-sol-artifact-1",
  "contractName": "Amm",
  "sourceName": "contracts/Amm.sol",
  "abi": [
    {
      "inputs": [
        {
          "internalType": "uint256",
          "name": "amountt1",
          "type": "uint256"
        },
        {
          "internalType": "uint256",
          "name": "amountt2",
          "type": "uint256"
        }
      ],
      "name": "addFaucet",
      "outputs": [],
      "stateMutability": "nonpayable",
      "type": "function"
    },
    {
      "inputs": [
        {
          "internalType": "uint256",
          "name": "amttoken1",
          "type": "uint256"
        }
      ],
      "name": "estimationOftoken1",
      "outputs": [
        {
          "internalType": "uint256",
          "name": "amttoken2",
          "type": "uint256"
        }
      ],
      "stateMutability": "view",
      "type": "function"
    },
    {
      "inputs": [
        {
          "internalType": "uint256",
          "name": "ammt2",
          "type": "uint256"
        }
      ],
      "name": "estimationOftoken2",
      "outputs": [
        {
          "internalType": "uint256",
          "name": "amtt1",
          "type": "uint256"
        }
      ],
      "stateMutability": "view",
      "type": "function"
    },
    {
      "inputs": [],
      "name": "getHolding",
      "outputs": [
        {
          "internalType": "uint256",
          "name": "",
          "type": "uint256"
        },
        {
          "internalType": "uint256",
          "name": "",
          "type": "uint256"
        },
        {
          "internalType": "uint256",
          "name": "",
          "type": "uint256"
        }
      ],
      "stateMutability": "view",
      "type": "function"
    },
    {
      "inputs": [],
      "name": "getPoolInfo",
      "outputs": [
        {
          "internalType": "uint256",
          "name": "",
          "type": "uint256"
        },
        {
          "internalType": "uint256",
          "name": "",
          "type": "uint256"
        },
        {
          "internalType": "uint256",
          "name": "",
          "type": "uint256"
        }
      ],
      "stateMutability": "view",
      "type": "function"
    },
    {
      "inputs": [
        {
          "internalType": "uint256",
          "name": "amtt2",
          "type": "uint256"
        }
      ],
      "name": "getSwaptoken1giventoken2",
      "outputs": [
        {
          "internalType": "uint256",
          "name": "amtt1",
          "type": "uint256"
        }
      ],
      "stateMutability": "view",
      "type": "function"
    },
    {
      "inputs": [
        {
          "internalType": "uint256",
          "name": "amtt1",
          "type": "uint256"
        }
      ],
      "name": "getSwaptoken2giventoken1",
      "outputs": [
        {
          "internalType": "uint256",
          "name": "amtt2",
          "type": "uint256"
        }
      ],
      "stateMutability": "view",
      "type": "function"
    },
    {
      "inputs": [],
      "name": "gettotaltoken1",
      "outputs": [
        {
          "internalType": "uint256",
          "name": "",
          "type": "uint256"
        }
      ],
      "stateMutability": "view",
      "type": "function"
    },
    {
      "inputs": [],
      "name": "gettotaltoken2",
      "outputs": [
        {
          "internalType": "uint256",
          "name": "",
          "type": "uint256"
        }
      ],
      "stateMutability": "view",
      "type": "function"
    },
    {
      "inputs": [
        {
          "internalType": "uint256",
          "name": "amountt1",
          "type": "uint256"
        },
        {
          "internalType": "uint256",
          "name": "amountt2",
          "type": "uint256"
        }
      ],
      "name": "provide",
      "outputs": [
        {
          "internalType": "uint256",
          "name": "share",
          "type": "uint256"
        }
      ],
      "stateMutability": "nonpayable",
      "type": "function"
    },
    {
      "inputs": [
        {
          "internalType": "uint256",
          "name": "amountt2",
          "type": "uint256"
        }
      ],
      "name": "requiredtoke1",
      "outputs": [
        {
          "internalType": "uint256",
          "name": "reqtoken1",
          "type": "uint256"
        }
      ],
      "stateMutability": "view",
      "type": "function"
    },
    {
      "inputs": [
        {
          "internalType": "uint256",
          "name": "amountt1",
          "type": "uint256"
        }
      ],
      "name": "requiredtoken2",
      "outputs": [
        {
          "internalType": "uint256",
          "name": "reqToken2",
          "type": "uint256"
        }
      ],
      "stateMutability": "view",
      "type": "function"
    },
    {
      "inputs": [
        {
          "internalType": "uint256",
          "name": "amtt2",
          "type": "uint256"
        }
      ],
      "name": "swap2",
      "outputs": [
        {
          "internalType": "uint256",
          "name": "amtt1",
          "type": "uint256"
        }
      ],
      "stateMutability": "nonpayable",
      "type": "function"
    },
    {
      "inputs": [
        {
          "internalType": "uint256",
          "name": "amtt1",
          "type": "uint256"
        }
      ],
      "name": "swapt1",
      "outputs": [
        {
          "internalType": "uint256",
          "name": "amtt2",
          "type": "uint256"
        }
      ],
      "stateMutability": "nonpayable",
      "type": "function"
    },
    {
      "inputs": [
        {
          "internalType": "uint256",
          "name": "_share",
          "type": "uint256"
        }
      ],
      "name": "tokenEstimated",
      "outputs": [
        {
          "internalType": "uint256",
          "name": "amountt1",
          "type": "uint256"
        },
        {
          "internalType": "uint256",
          "name": "amountt2",
          "type": "uint256"
        }
      ],
      "stateMutability": "view",
      "type": "function"
    },
    {
      "inputs": [],
      "name": "totalshare",
      "outputs": [
        {
          "internalType": "uint256",
          "name": "",
          "type": "uint256"
        }
      ],
      "stateMutability": "view",
      "type": "function"
    },
    {
      "inputs": [],
      "name": "totalsharein",
      "outputs": [
        {
          "internalType": "uint256",
          "name": "",
          "type": "uint256"
        }
      ],
      "stateMutability": "view",
      "type": "function"
    },
    {
      "inputs": [],
      "name": "totaltoken1",
      "outputs": [
        {
          "internalType": "uint256",
          "name": "",
          "type": "uint256"
        }
      ],
      "stateMutability": "view",
      "type": "function"
    },
    {
      "inputs": [],
      "name": "totaltoken2",
      "outputs": [
        {
          "internalType": "uint256",
          "name": "",
          "type": "uint256"
        }
      ],
      "stateMutability": "view",
      "type": "function"
    },
    {
      "inputs": [
        {
          "internalType": "uint256",
          "name": "_share",
          "type": "uint256"
        }
      ],
      "name": "withdraw",
      "outputs": [
        {
          "internalType": "uint256",
          "name": "amountt1",
          "type": "uint256"
        },
        {
          "internalType": "uint256",
          "name": "amountt2",
          "type": "uint256"
        }
      ],
      "stateMutability": "nonpayable",
      "type": "function"
    }
  ],
  "bytecode": "0x608060405234801561001057600080fd5b50611f3c806100206000396000f3fe608060405234801561001057600080fd5b506004361061012c5760003560e01c80637a5be237116100ad578063dd92884811610071578063dd92884814610385578063e8c3c54f146103b5578063eef08c62146103e5578063f9ee94e114610415578063fa4ef59e146104335761012c565b80637a5be237146102ca578063a3e987ed146102e8578063b3ad4a1014610319578063d264ff4614610337578063d839c9b0146103555761012c565b80633a410af9116100f45780633a410af91461021057806360246c881461024057806360c2a78e1461026057806373ba13281461027e5780637651f6cd1461029a5761012c565b8063045f4b8a146101315780630c2fe1141461014f5780631e6ec4a01461017f5780632e1a7d4d146101af578063327f759f146101e0575b600080fd5b610139610453565b6040516101469190611cbc565b60405180910390f35b6101696004803603810190610164919061177c565b61045d565b6040516101769190611cbc565b60405180910390f35b6101996004803603810190610194919061177c565b61050c565b6040516101a69190611cbc565b60405180910390f35b6101c960048036038101906101c4919061177c565b610709565b6040516101d7929190611cd7565b60405180910390f35b6101fa60048036038101906101f5919061177c565b610998565b6040516102079190611cbc565b60405180910390f35b61022a6004803603810190610225919061177c565b610a72565b6040516102379190611cbc565b60405180910390f35b610248610b4c565b60405161025793929190611d00565b60405180910390f35b610268610b65565b6040516102759190611cbc565b60405180910390f35b610298600480360381019061029391906117a5565b610b6f565b005b6102b460048036038101906102af919061177c565b610c9d565b6040516102c19190611cbc565b60405180910390f35b6102d2610ccf565b6040516102df9190611cbc565b60405180910390f35b61030260048036038101906102fd919061177c565b610cd5565b604051610310929190611cd7565b60405180910390f35b610321610dbc565b60405161032e9190611cbc565b60405180910390f35b61033f610dc5565b60405161034c9190611cbc565b60405180910390f35b61036f600480360381019061036a919061177c565b610dcb565b60405161037c9190611cbc565b60405180910390f35b61039f600480360381019061039a919061177c565b610e7a565b6040516103ac9190611cbc565b60405180910390f35b6103cf60048036038101906103ca91906117a5565b611077565b6040516103dc9190611cbc565b60405180910390f35b6103ff60048036038101906103fa919061177c565b611480565b60405161040c9190611cbc565b60405180910390f35b61041d6114f6565b60405161042a9190611cbc565b60405180910390f35b61043b6114fc565b60405161044a93929190611d00565b60405180910390f35b6000600154905090565b600080600054116104a3576040517f08c379a000000000000000000000000000000000000000000000000000000000815260040161049a90611b9c565b60405180910390fd5b60006104ba836001546115dd90919063ffffffff16565b905060006104d38260065461163b90919063ffffffff16565b90506104ea8160025461169390919063ffffffff16565b925060025483141561050557828061050190611e67565b9350505b5050919050565b60008060005411610552576040517f08c379a000000000000000000000000000000000000000000000000000000000815260040161054990611b9c565b60405180910390fd5b60048260008111610598576040517f08c379a000000000000000000000000000000000000000000000000000000000815260040161058f90611b3c565b60405180910390fd5b808260003373ffffffffffffffffffffffffffffffffffffffff1673ffffffffffffffffffffffffffffffffffffffff168152602001908152602001600020541015610619576040517f08c379a000000000000000000000000000000000000000000000000000000000815260040161061090611c7c565b60405180910390fd5b6106228461045d565b925083600460003373ffffffffffffffffffffffffffffffffffffffff1673ffffffffffffffffffffffffffffffffffffffff16815260200190815260200160002060008282546106739190611e29565b92505081905550836001600082825461068c9190611d48565b9250508190555082600260008282546106a59190611e29565b9250508190555082600560003373ffffffffffffffffffffffffffffffffffffffff1673ffffffffffffffffffffffffffffffffffffffff16815260200190815260200160002060008282546106fb9190611d48565b925050819055505050919050565b6000806000805411610750576040517f08c379a000000000000000000000000000000000000000000000000000000000815260040161074790611b9c565b60405180910390fd5b60038360008111610796576040517f08c379a000000000000000000000000000000000000000000000000000000000815260040161078d90611b3c565b60405180910390fd5b808260003373ffffffffffffffffffffffffffffffffffffffff1673ffffffffffffffffffffffffffffffffffffffff168152602001908152602001600020541015610817576040517f08c379a000000000000000000000000000000000000000000000000000000000815260040161080e90611c7c565b60405180910390fd5b61082085610cd5565b809450819550505084600360003373ffffffffffffffffffffffffffffffffffffffff1673ffffffffffffffffffffffffffffffffffffffff16815260200190815260200160002060008282546108779190611e29565b925050819055508460008082825461088f9190611e29565b9250508190555083600160008282546108a89190611e29565b9250508190555082600260008282546108c19190611e29565b925050819055506108df6002546001546116ec90919063ffffffff16565b60068190555083600460003373ffffffffffffffffffffffffffffffffffffffff1673ffffffffffffffffffffffffffffffffffffffff16815260200190815260200160002060008282546109349190611d48565b9250508190555082600560003373ffffffffffffffffffffffffffffffffffffffff1673ffffffffffffffffffffffffffffffffffffffff168152602001908152602001600020600082825461098a9190611d48565b925050819055505050915091565b600080600054116109de576040517f08c379a00000000000000000000000000000000000000000000000000000000081526004016109d590611b9c565b60405180910390fd5b6001548210610a22576040517f08c379a0000000000000000000000000000000000000000000000000000000008152600401610a1990611bfc565b60405180910390fd5b6000610a398360015461169390919063ffffffff16565b90506000610a528260065461163b90919063ffffffff16565b9050610a696002548261169390919063ffffffff16565b92505050919050565b60008060005411610ab8576040517f08c379a0000000000000000000000000000000000000000000000000000000008152600401610aaf90611b9c565b60405180910390fd5b6002548210610afc576040517f08c379a0000000000000000000000000000000000000000000000000000000008152600401610af390611bbc565b60405180910390fd5b6000610b138360025461169390919063ffffffff16565b90506000610b2c8260065461163b90919063ffffffff16565b9050610b436001548261169390919063ffffffff16565b92505050919050565b6000806000600154600254600054925092509250909192565b6000600254905090565b610bc182600460003373ffffffffffffffffffffffffffffffffffffffff1673ffffffffffffffffffffffffffffffffffffffff168152602001908152602001600020546115dd90919063ffffffff16565b600460003373ffffffffffffffffffffffffffffffffffffffff1673ffffffffffffffffffffffffffffffffffffffff16815260200190815260200160002081905550610c5681600560003373ffffffffffffffffffffffffffffffffffffffff1673ffffffffffffffffffffffffffffffffffffffff168152602001908152602001600020546115dd90919063ffffffff16565b600560003373ffffffffffffffffffffffffffffffffffffffff1673ffffffffffffffffffffffffffffffffffffffff168152602001908152602001600020819055505050565b6000610cc8600254610cba846001546116ec90919063ffffffff16565b61163b90919063ffffffff16565b9050919050565b60005481565b6000806000805411610d1c576040517f08c379a0000000000000000000000000000000000000000000000000000000008152600401610d1390611b9c565b60405180910390fd5b600054831115610d61576040517f08c379a0000000000000000000000000000000000000000000000000000000008152600401610d5890611c5c565b60405180910390fd5b610d8a600054610d7c600154866116ec90919063ffffffff16565b61163b90919063ffffffff16565b9150610db5600054610da7600254866116ec90919063ffffffff16565b61163b90919063ffffffff16565b9050915091565b60008054905090565b60025481565b60008060005411610e11576040517f08c379a0000000000000000000000000000000000000000000000000000000008152600401610e0890611b9c565b60405180910390fd5b6000610e28836002546115dd90919063ffffffff16565b90506000610e418260065461163b90919063ffffffff16565b9050610e588160015461169390919063ffffffff16565b9250600154831415610e73578280610e6f90611e67565b9350505b5050919050565b60008060005411610ec0576040517f08c379a0000000000000000000000000000000000000000000000000000000008152600401610eb790611b9c565b60405180910390fd5b60058260008111610f06576040517f08c379a0000000000000000000000000000000000000000000000000000000008152600401610efd90611b3c565b60405180910390fd5b808260003373ffffffffffffffffffffffffffffffffffffffff1673ffffffffffffffffffffffffffffffffffffffff168152602001908152602001600020541015610f87576040517f08c379a0000000000000000000000000000000000000000000000000000000008152600401610f7e90611c7c565b60405180910390fd5b610f9084610dcb565b925083600560003373ffffffffffffffffffffffffffffffffffffffff1673ffffffffffffffffffffffffffffffffffffffff1681526020019081526020016000206000828254610fe19190611e29565b925050819055508360026000828254610ffa9190611d48565b9250508190555082600160008282546110139190611e29565b9250508190555082600460003373ffffffffffffffffffffffffffffffffffffffff1673ffffffffffffffffffffffffffffffffffffffff16815260200190815260200160002060008282546110699190611d48565b925050819055505050919050565b6000600483600081116110bf576040517f08c379a00000000000000000000000000000000000000000000000000000000081526004016110b690611b3c565b60405180910390fd5b808260003373ffffffffffffffffffffffffffffffffffffffff1673ffffffffffffffffffffffffffffffffffffffff168152602001908152602001600020541015611140576040517f08c379a000000000000000000000000000000000000000000000000000000000815260040161113790611c7c565b60405180910390fd5b60058460008111611186576040517f08c379a000000000000000000000000000000000000000000000000000000000815260040161117d90611b3c565b60405180910390fd5b808260003373ffffffffffffffffffffffffffffffffffffffff1673ffffffffffffffffffffffffffffffffffffffff168152602001908152602001600020541015611207576040517f08c379a00000000000000000000000000000000000000000000000000000000081526004016111fe90611c7c565b60405180910390fd5b60008054141561122857620f424060646112219190611dcf565b94506112ca565b60006112536001546112458a6000546116ec90919063ffffffff16565b61163b90919063ffffffff16565b905060006112806002546112728a6000546116ec90919063ffffffff16565b61163b90919063ffffffff16565b90508082146112c4576040517f08c379a00000000000000000000000000000000000000000000000000000000081526004016112bb90611c9c565b60405180910390fd5b81965050505b6000851161130d576040517f08c379a000000000000000000000000000000000000000000000000000000000815260040161130490611c1c565b60405180910390fd5b86600460003373ffffffffffffffffffffffffffffffffffffffff1673ffffffffffffffffffffffffffffffffffffffff168152602001908152602001600020600082825461135c9190611e29565b9250508190555085600560003373ffffffffffffffffffffffffffffffffffffffff1673ffffffffffffffffffffffffffffffffffffffff16815260200190815260200160002060008282546113b29190611e29565b9250508190555086600160008282546113cb9190611d48565b9250508190555085600260008282546113e49190611d48565b925050819055506114026002546001546116ec90919063ffffffff16565b60068190555084600360003373ffffffffffffffffffffffffffffffffffffffff1673ffffffffffffffffffffffffffffffffffffffff16815260200190815260200160002060008282546114579190611d48565b925050819055508460008082825461146f9190611d48565b925050819055505050505092915050565b600080600054116114c6576040517f08c379a00000000000000000000000000000000000000000000000000000000081526004016114bd90611b9c565b60405180910390fd5b6114ef6001546114e1846002546116ec90919063ffffffff16565b61163b90919063ffffffff16565b9050919050565b60015481565b600080600080600460003373ffffffffffffffffffffffffffffffffffffffff1673ffffffffffffffffffffffffffffffffffffffff1681526020019081526020016000205490506000600560003373ffffffffffffffffffffffffffffffffffffffff1673ffffffffffffffffffffffffffffffffffffffff1681526020019081526020016000205490506000600360003373ffffffffffffffffffffffffffffffffffffffff1673ffffffffffffffffffffffffffffffffffffffff168152602001908152602001600020549050828282955095509550505050909192565b60008082846115ec9190611d48565b905083811015611631576040517f08c379a000000000000000000000000000000000000000000000000000000000815260040161162890611b5c565b60405180910390fd5b8091505092915050565b600080821161167f576040517f08c379a000000000000000000000000000000000000000000000000000000000815260040161167690611bdc565b60405180910390fd5b818361168b9190611d9e565b905092915050565b6000828211156116d8576040517f08c379a00000000000000000000000000000000000000000000000000000000081526004016116cf90611b7c565b60405180910390fd5b81836116e49190611e29565b905092915050565b6000808314156116ff5760009050611761565b6000828461170d9190611dcf565b905082848261171c9190611d9e565b1461175c576040517f08c379a000000000000000000000000000000000000000000000000000000000815260040161175390611c3c565b60405180910390fd5b809150505b92915050565b60008135905061177681611eef565b92915050565b60006020828403121561178e57600080fd5b600061179c84828501611767565b91505092915050565b600080604083850312156117b857600080fd5b60006117c685828601611767565b92505060206117d785828601611767565b9150509250929050565b60006117ee601e83611d37565b91507f616d6f756e742073686f756c6420626520677261746572207468656e203000006000830152602082019050919050565b600061182e601b83611d37565b91507f536166654d6174683a206164646974696f6e206f766572666c6f7700000000006000830152602082019050919050565b600061186e601e83611d37565b91507f536166654d6174683a207375627472616374696f6e206f766572666c6f7700006000830152602082019050919050565b60006118ae601483611d37565b91507f6e6f206c6971756964697479206973206c6566740000000000000000000000006000830152602082019050919050565b60006118ee601183611d37565b91507f696e737566666963656e7420706f6f6c200000000000000000000000000000006000830152602082019050919050565b600061192e601a83611d37565b91507f536166654d6174683a206469766973696f6e206279207a65726f0000000000006000830152602082019050919050565b600061196e601283611d37565b91507f696e73756666696365696e7420706f6f6c2000000000000000000000000000006000830152602082019050919050565b60006119ae601783611d37565b91507f207368617265206d7573742062652067726561746572200000000000000000006000830152602082019050919050565b60006119ee602183611d37565b91507f536166654d6174683a206d756c7469706c69636174696f6e206f766572666c6f60008301527f77000000000000000000000000000000000000000000000000000000000000006020830152604082019050919050565b6000611a54602483611d37565b91507f53686172652073686f756c64206265206c657373207468616e20746f74616c5360008301527f68617265000000000000000000000000000000000000000000000000000000006020830152604082019050919050565b6000611aba601483611d37565b91507f696e73756666696369656e742062616c616e63650000000000000000000000006000830152602082019050919050565b6000611afa601b83611d37565b91507f6d75737420626520696e2073616d652070726f706f7274696f6e2000000000006000830152602082019050919050565b611b3681611e5d565b82525050565b60006020820190508181036000830152611b55816117e1565b9050919050565b60006020820190508181036000830152611b7581611821565b9050919050565b60006020820190508181036000830152611b9581611861565b9050919050565b60006020820190508181036000830152611bb5816118a1565b9050919050565b60006020820190508181036000830152611bd5816118e1565b9050919050565b60006020820190508181036000830152611bf581611921565b9050919050565b60006020820190508181036000830152611c1581611961565b9050919050565b60006020820190508181036000830152611c35816119a1565b9050919050565b60006020820190508181036000830152611c55816119e1565b9050919050565b60006020820190508181036000830152611c7581611a47565b9050919050565b60006020820190508181036000830152611c9581611aad565b9050919050565b60006020820190508181036000830152611cb581611aed565b9050919050565b6000602082019050611cd16000830184611b2d565b92915050565b6000604082019050611cec6000830185611b2d565b611cf96020830184611b2d565b9392505050565b6000606082019050611d156000830186611b2d565b611d226020830185611b2d565b611d2f6040830184611b2d565b949350505050565b600082825260208201905092915050565b6000611d5382611e5d565b9150611d5e83611e5d565b9250827fffffffffffffffffffffffffffffffffffffffffffffffffffffffffffffffff03821115611d9357611d92611e91565b5b828201905092915050565b6000611da982611e5d565b9150611db483611e5d565b925082611dc457611dc3611ec0565b5b828204905092915050565b6000611dda82611e5d565b9150611de583611e5d565b9250817fffffffffffffffffffffffffffffffffffffffffffffffffffffffffffffffff0483118215151615611e1e57611e1d611e91565b5b828202905092915050565b6000611e3482611e5d565b9150611e3f83611e5d565b925082821015611e5257611e51611e91565b5b828203905092915050565b6000819050919050565b6000611e7282611e5d565b91506000821415611e8657611e85611e91565b5b600182039050919050565b7f4e487b7100000000000000000000000000000000000000000000000000000000600052601160045260246000fd5b7f4e487b7100000000000000000000000000000000000000000000000000000000600052601260045260246000fd5b611ef881611e5d565b8114611f0357600080fd5b5056fea26469706673582212209c609f47786d41a221904c11a26a1f64de4f38e9b2e3e74a81b7b572c82bbbe464736f6c63430008000033",
  "linkReferences": {},
  "deployedLinkReferences": {}
}